:100000000C9463000C948B000C948B000C948B006C
:100010000C948B000C948B000C948B000C948B0034
:100020000C948B000C948B000C948B000C94590254
:100030000C948B000C948B000C948B000C948B0014
:100040000C9417030C948B000C9423050C947105ED
:100050000C948B000C948B000C948B000C948B00F4
:100060000C948B000C948B000000000024002700EF
:100070002A0000000000250028002B0000000000DE
:1000800023002600290004040404040404040202DA
:100090000202020203030303030301020408102007
:1000A0004080010204081020010204081020000012
:1000B0000007000201000003040600000000000029
:1000C00000008D00DD0611241FBECFEFD8E0DEBF9B
:1000D000CDBF11E0A0E0B1E0EEE1F2E102C0059099
:1000E0000D92A031B107D9F711E0A0E1B1E001C054
:1000F0001D92A13FB107E1F710E0C6ECD0E004C0CB
:100100002297FE010E940909C23CD107C9F70E944B
:1001100033070C940D090C94000080E191E00E94DB
:10012000150108958FEC91E00E943306892B09F4A4
:1001300064C08FEC91E00E946406809313018133C8
:1001400009F055C080E191E064EB70E00E946B0122
:1001500082E061E020E432E44FE050E00E94860457
:10016000AB01BC014093140150931501609316013B
:10017000709317018FEC91E02AE030E00E941B0899
:1001800082E061E020E432E44FE050E00E94860427
:10019000AB01BC014093140150931501609316010B
:1001A000709317018FEC91E02AE030E00E941B0869
:1001B00082E061E020E432E44FE050E00E948604F7
:1001C000AB01BC01409314015093150160931601DB
:1001D000709317018FEC91E02AE030E00E941B0839
:1001E00068EB7BE080E090E00E945F03089561E0AF
:1001F00070E080E090E00E945F03089580E191E06C
:1002000069E070E00E94520282E060E00E94F30325
:1002100084E061E00E9432048FEC91E040E052EC17
:1002200061E070E00E94AC050895FC018091180126
:100230008C3090F480838F5F80931801815090E020
:10024000FC01EE0FFF1FE80FF91FE75EFE4F88EB82
:100250009BE09283818308958FEF80830895FC0152
:1002600020812C30B8F58181992787FD909548E849
:1002700050E0481B590B440F551F440F551F64177E
:10028000750784F08281992787FD909548E552E0B3
:10029000481B590B440F551F440F551F6417750712
:1002A0000CF4AB0142505040CA01AA2797FDA0951B
:1002B000BA2F880F991FAA1FBB1F4FB7F89430E0C1
:1002C000F901EE0FFF1FE20FF31FE75EFE4F92836F
:1002D00081834FBF0895AF92BF92CF92DF92EF928A
:1002E000FF920F931F93CF93DF93EC019B0182E06A
:1002F000603278070CF048C077FF03C020E030E0A0
:1003000005C0653B710514F024EB30E000D000D04F
:10031000B901882777FD8095982F2981332727FDFC
:100320003095E8E8AE2EB12CA21AB30AAA0CBB1C79
:10033000AA0CBB1CCC24B7FCC094DC2CEA81FF27A0
:10034000E7FDF09528E532E02E1B3F0B220F331F0F
:10035000220F331F442737FD4095542FEDB7FEB7CA
:10036000218332834383548320E030E040E050E037
:1003700004EBE02EF12C012D112D0E942F089B0182
:100380000F900F900F900F90CE01B9010E942F0196
:10039000DF91CF911F910F91FF90EF90DF90CF9061
:1003A000BF90AF900895CF92DF92EF92FF921F938C
:1003B000CF93DF93EC01162F7A01690188818C308D
:1003C00008F064C0862F61E00E94F303888190E00A
:1003D000FC01EE0FFF1FE80FF91FE75EFE4F1F73D2
:1003E0008081807C812B808380E292E08E199F093E
:1003F00064E070E00E94A308698380E699E08C19AC
:100400009D0964E070E00E94A3086A83A8818A2F96
:100410006CE00E949708682F70E0AB01440F551FF5
:10042000460F571F440F551F440F551F20E030E063
:10043000C901840F951FFC01EE0FFF1FE80FF91F84
:10044000E75EFE4F808186FD15C02F5F3F4F2C3049
:10045000310571F724C01092800082E08093810002
:100460001092850010928400B19A80916F00826092
:1004700080936F008A2F90E0FC01EE0FFF1FE80FC2
:10048000F91FE75EFE4F8081806480838881DF9161
:10049000CF911F91FF90EF90DF90CF900895672B41
:1004A000D1F2E8CF40E252E020E639E00E94D301E9
:1004B00008951F920F920FB60F9211242F933F931E
:1004C0004F935F936F937F938F939F93AF93BF935C
:1004D000EF93FF9380913D0187FF05C01092850047
:1004E000109284002BC020913D01332727FD3095C9
:1004F0008091180190E02817390704F580913D019B
:10050000992787FD9095FC01EE0FFF1FE80FF91F5B
:10051000E75EFE4F808186FF11C080913D019927E3
:1005200087FD9095FC01EE0FFF1FE80FF91FE75EB6
:10053000FE4F80818F7360E00E94320480913D0104
:100540008F5F80933D0120913D01332727FD30953A
:100550008091180190E0281739070CF04EC0809167
:100560003D018C300CF049C0209184003091850011
:1005700080913D01992787FD9095FC01EE0FFF1FAB
:10058000E80FF91FE75EFE4F81819281280F391F26
:10059000309389002093880080913D01992787FD41
:1005A0009095FC01EE0FFF1FE80FF91FE75EFE4F6D
:1005B000808186FF2BC080913D01992787FD909512
:1005C000FC01EE0FFF1FE80FF91FE75EFE4F808171
:1005D0008F7361E00E94320419C080E49CE905C079
:1005E0008091840090918500049690938900809377
:1005F00088008FEF80933D0109C080918400909125
:100600008500049680549C4940F3EACFFF91EF9116
:10061000BF91AF919F918F917F916F915F914F911A
:100620003F912F910F900FBE0F901F9018951F9222
:100630000F920FB60F9211242F933F938F939F9396
:10064000AF93BF938091420190914301A0914401E7
:10065000B0914501309146010196A11DB11D232F96
:100660002D5F2D3720F02D570196A11DB11D209330
:1006700046018093420190934301A0934401B093BB
:10068000450180913E0190913F01A0914001B091C0
:1006900041010196A11DB11D80933E0190933F0140
:1006A000A0934001B0934101BF91AF919F918F9171
:1006B0003F912F910F900FBE0F901F9018959B01A7
:1006C000AC017FB7F89480913E0190913F01A091D9
:1006D0004001B091410166B5A89B05C06F3F19F07C
:1006E0000196A11DB11D7FBFBA2FA92F982F882772
:1006F000860F911DA11DB11D62E0880F991FAA1FD1
:10070000BB1F6A95D1F7BC012DC0FFB7F89480914B
:100710003E0190913F01A0914001B0914101E6B5A9
:10072000A89B05C0EF3F19F00196A11DB11DFFBFA9
:10073000BA2FA92F982F88278E0F911DA11DB11DAB
:10074000E2E0880F991FAA1FBB1FEA95D1F7861B0D
:10075000970B885E9340C8F2215030404040504093
:1007600068517C4F211531054105510571F60895F9
:10077000789484B5826084BD84B5816084BD85B57C
:10078000826085BD85B5816085BDEEE6F0E0808143
:1007900081608083E1E8F0E0108280818260808364
:1007A000808181608083E0E8F0E0808181608083E7
:1007B000E1EBF0E0808184608083E0EBF0E0808119
:1007C00081608083EAE7F0E08081846080838081BB
:1007D0008260808380818160808380818068808363
:1007E0001092C1000895CF93DF93482F50E0CA01C3
:1007F00086569F4FFC0134914A575F4FFA0184910E
:10080000882369F190E0880F991FFC01E859FF4F98
:10081000A591B491FC01EE58FF4FC591D491662388
:1008200051F42FB7F8948C91932F909589238C9342
:10083000888189230BC0623061F42FB7F8948C91C2
:10084000932F909589238C938881832B88832FBF46
:1008500006C09FB7F8948C91832B8C939FBFDF9138
:10086000CF910895482F50E0CA0182559F4FFC0157
:100870002491CA0186569F4FFC0194914A575F4FBD
:10088000FA013491332309F440C0222351F123307B
:1008900071F0243028F42130A1F0223011F514C079
:1008A0002630B1F02730C1F02430D9F404C0809153
:1008B00080008F7703C0809180008F7D80938000BF
:1008C00010C084B58F7702C084B58F7D84BD09C008
:1008D0008091B0008F7703C08091B0008F7D8093AE
:1008E000B000E32FF0E0EE0FFF1FEE58FF4FA59191
:1008F000B4912FB7F894662321F48C9190958923B5
:1009000002C08C91892B8C932FBF08958F929F9258
:10091000AF92BF92CF92DF92EF92FF920F931F930D
:10092000CF93DF93A82FB0E0CD0186569F4FFC01F7
:100930008490AA57BF4FFD018491662311F4992436
:1009400001C0982C6FEFA62E6FEFB62E6FEFC62E5C
:100950006FE0D62EA222B322C422D522682F70E0E7
:10096000660F771F64587F4FEE24FF248701FB0139
:10097000A591B4910BC0EA14FB040C051D0509F404
:100980004EC00894E11CF11C011D111D8C918821A1
:10099000891589F30CC0EA14FB040C051D0509F444
:1009A0003EC00894E11CF11C011D111D03C0FB0198
:1009B000A591B4918C918821891569F720E030E0E8
:1009C00040E050E0FB01C591D4910FC0DA01C901AC
:1009D0008E0D9F1DA01FB11F8A159B05AC05BD057F
:1009E000F1F02F5F3F4F4F4F5F4F8881882189156E
:1009F00069F3CA01B90125E130E040E050E00E940E
:100A000078089B01AC01205F3F4F4F4F5F4F84E060
:100A100056954795379527958A95D1F704C020E0DC
:100A200030E040E050E0B901CA01DF91CF911F9161
:100A30000F91FF90EF90DF90CF90BF90AF909F907D
:100A40008F90089508951F920F920FB60F92112460
:100A50002F933F934F938F939F93EF93FF938091A7
:100A6000C00082FD1DC04091C600209187013091D9
:100A700088012F5F3F4F2F733070809189019091D3
:100A80008A012817390771F0E0918701F0918801F8
:100A9000E95BFE4F4083309388012093870102C0B9
:100AA0008091C600FF91EF919F918F914F913F915F
:100AB0002F910F900FBE0F901F901895E091DB01C2
:100AC000F091DC01E05CFF4F8191919120813181B7
:100AD000821B930B8F739070892B11F00E9422055B
:100AE00008951F920F920FB60F9211242F933F93E8
:100AF0008F939F93EF93FF932091CB013091CC0183
:100B00008091CD019091CE012817390731F4809161
:100B1000C1008F7D8093C10014C0E091CD01F091A0
:100B2000CE01E557FE4F20818091CD019091CE01FD
:100B300001968F7390709093CE018093CD01209396
:100B4000C600FF91EF919F918F913F912F910F9050
:100B50000FBE0F901F901895AF92BF92DF92EF9249
:100B6000FF920F931F93CF93DF93EC017A018B01D8
:100B7000DD24403081EE580780E0680780E0780788
:100B800011F0DD24D39491E0A92EB12CEC89FD89DC
:100B9000DD2069F0C50108A002C0880F991F0A94E2
:100BA000E2F7808360E079E08DE390E005C0108299
:100BB00060E874E88EE190E0A80197010E94B60811
:100BC00021503040404050405695479537952795E5
:100BD00080E12030380720F0DD2011F0DD24D6CF71
:100BE000E889F9893083EA89FB89208319A2EE8993
:100BF000FF89408121E030E0C9010C8C02C0880FE0
:100C0000991F0A94E2F7482B4083EE89FF894081BF
:100C1000C9010D8C02C0880F991F0A94E2F7482B76
:100C20004083EE89FF894081C9010E8C02C0880F84
:100C3000991F0A94E2F7482B4083EE89FF8980814F
:100C40000F8C02C0220F331F0A94E2F7209528234D
:100C50002083DF91CF911F910F91FF90EF90DF9054
:100C6000BF90AF900895DC011C96ED91FC911D970B
:100C7000E05CFF4F2191319180819181281B390BDC
:100C80002F733070C9010895DC011C96ED91FC9121
:100C90001D97E05CFF4F20813181E054F040DF017F
:100CA000AE5BBF4F8D919C9111972817390719F4AE
:100CB0002FEF3FEF07C08D919C91E80FF91F8081C6
:100CC000282F30E0C9010895DC011C96ED91FC91BC
:100CD0001D97E05CFF4F20813181E054F040DF013F
:100CE000AE5BBF4F8D919C9111972817390719F46E
:100CF0002FEF3FEF10C08D919C911197E80FF91FD6
:100D000020818D919C91119701968F73907011960F
:100D10009C938E9330E0C9010895DC0191968C91EB
:100D20009197882339F05496ED91FC9155978081E5
:100D300086FFF9CF91961C920895CF93DF93EC0133
:100D4000EE85FF85E05CFF4F20813181E054F0406B
:100D50002F5F3F4F2F733070DF01AE5BBF4F8D9120
:100D60009C91119728173907D1F3E05CFF4F8081E0
:100D70009181E054F040E80FF91F6083EE85FF8514
:100D8000E05CFF4F31832083EE89FF89208181E081
:100D900090E00F8C02C0880F991F0A94E2F7282B6D
:100DA000208381E089A3EC89FD8980818064808330
:100DB00081E090E0DF91CF9108951092D2011092DE
:100DC000D10188EE93E0A0E0B0E08093D30190934E
:100DD000D401A093D501B093D60184E091E0909323
:100DE000D0018093CF0187E491E09093DC01809360
:100DF000DB018BE891E09093DE018093DD0185ECCF
:100E000090E09093E0018093DF0184EC90E0909378
:100E1000E2018093E10180EC90E09093E401809303
:100E2000E30181EC90E09093E6018093E50182EC90
:100E300090E09093E8018093E70186EC90E0909336
:100E4000EA018093E90184E08093EB0183E08093E1
:100E5000EC0187E08093ED0185E08093EE0181E075
:100E60008093EF010895CF93DF930E94B8030E940F
:100E7000FE00CEE5D5E00E9492002097E1F30E94AB
:100E80005E05F9CFCF92DF92EF92FF920F931F93FF
:100E9000CF93DF937C016B018A01C0E0D0E00FC0EB
:100EA000D6016D916D01D701ED91FC910190F0811A
:100EB000E02DC7010995C80FD91F01501040011539
:100EC000110571F7CE01DF91CF911F910F91FF9026
:100ED000EF90DF90CF900895EF92FF920F931F93C2
:100EE0008C01DC01ED91FC910190F081E02D6DE031
:100EF00009957C01D801ED91FC910190F081E02DE4
:100F0000C8016AE009959C012E0D3F1DC9011F9182
:100F10000F91FF90EF900895CF93DF93EC0161154F
:100F2000710519F420E030E00FC0DB010D900020C6
:100F3000E9F71197A61BB70BE881F9810280F381CD
:100F4000E02DAD0109959C01C901DF91CF91089574
:100F50004F925F927F928F929F92AF92BF92CF9269
:100F6000DF92EF92FF920F931F93DF93CF93CDB752
:100F7000DEB7A1970FB6F894DEBF0FBECDBF2C0130
:100F8000742ECB01223008F42AE019A231E2C32EDC
:100F9000D12CCC0EDD1E822E9924AA24BB24672DD1
:100FA000752FA50194010E94B60879018A01C80134
:100FB000B701A50194010E947808472D461B0894AB
:100FC000C108D1084A3014F4405D01C0495CF60103
:100FD0004083E114F1040105110521F07E2C5F2D01
:100FE000C801DDCFC201B6010E948C07A1960FB6E1
:100FF000F894DEBF0FBECDBFCF91DF911F910F914F
:10100000FF90EF90DF90CF90BF90AF909F908F9028
:101010007F905F904F900895DC012115310541F4D8
:10102000ED91FC910190F081E02D642F09950895D8
:101030000E94A8070895EF92FF920F931F937C01DF
:101040000E940C088C01C7010E946C079C01200FB4
:10105000311FC9011F910F91FF90EF9008952F92BA
:101060003F924F925F926F927F928F929F92AF9238
:10107000BF92CF92DF92EF92FF920F931F93DF9375
:10108000CF93CDB7DEB73B014C0119012A016D8921
:101090007E898F89988D6A197B098C099D09621A4E
:1010A000730A840A950AA40193010E947808E21841
:1010B000F30804091509A80197010E94D8082A0D10
:1010C0003B1D4C1D5D1DB901CA01CF91DF911F91E0
:1010D0000F91FF90EF90DF90CF90BF90AF909F90D7
:1010E0008F907F906F905F904F903F902F900895DA
:1010F000629FD001739FF001829FE00DF11D649FFC
:10110000E00DF11D929FF00D839FF00D749FF00D87
:10111000659FF00D9927729FB00DE11DF91F639F28
:10112000B00DE11DF91FBD01CF0111240895991BD8
:1011300079E004C0991F961708F0961B881F7A95CE
:10114000C9F78095089597FB092E07260AD077FDE9
:1011500004D049D006D000201AF4709561957F4FD5
:101160000895F6F7909581959F4F0895A1E21A2E64
:10117000AA1BBB1BFD010DC0AA1FBB1FEE1FFF1F3B
:10118000A217B307E407F50720F0A21BB30BE40B8B
:10119000F50B661F771F881F991F1A9469F76095D2
:1011A0007095809590959B01AC01BD01CF0108958C
:1011B00097FB092E05260ED057FD04D0D7DF0AD0A5
:1011C000001C38F450954095309521953F4F4F4F76
:1011D0005F4F0895F6F790958095709561957F4FD4
:1011E0008F4F9F4F0895AA1BBB1B51E107C0AA1F39
:1011F000BB1FA617B70710F0A61BB70B881F991FB8
:101200005A95A9F780959095BC01CD010895EE0FF0
:0E121000FF1F0590F491E02D0994F894FFCF94
:10121E00000000009D0642073306640644068D0654
:00000001FF
