:100000000C9462000C948A000C948A000C948A0070
:100010000C948A000C948A000C948A000C948A0038
:100020000C948A000C948A000C948A000C948A0028
:100030000C948A000C948A000C948A000C948A0018
:100040000C9439010C948A000C94CB020C94190383
:100050000C948A000C948A000C948A000C948A00F8
:100060000C948A000C948A000000000024002700F1
:100070002A0000000000250028002B0000000000DE
:1000800023002600290004040404040404040202DA
:100090000202020203030303030301020408102007
:1000A0004080010204081020010204081020000012
:1000B0000007000201000003040600000000000029
:1000C0000000850411241FBECFEFD8E0DEBFCDBFF6
:1000D00011E0A0E0B1E0E4EEFCE002C005900D927A
:1000E000A435B107D9F712E0A4E5B1E001C01D9233
:1000F000A830B107E1F710E0C4ECD0E004C02297CB
:10010000FE010E946C06C23CD107C9F70E94DB04C5
:100110000C9470060C9400000F931F9306EE11E0F0
:10012000C80160E071E00E94160681E00E9415029D
:10013000BC01C8014AE050E00E94F40580E160E0A3
:100140000E9437028EE061E00E9437028EE060E09C
:100150000E94760282E161E00E94370282E161E062
:100160000E94760264EF71E080E090E00E948101DD
:10017000C80168E171E00E94130681E00E94150247
:100180006FEF73E0681B790BC8014AE050E00E94F2
:10019000F40582E160E00E94760280E161E00E9465
:1001A000370280E160E00E9476021F910F9108956E
:1001B0000F931F9380E160E00E9437028EE061E0C0
:1001C0000E9437028EE061E00E94760282E161E0E7
:1001D0000E94370282E160E00E94760264EF71E0E3
:1001E00080E090E00E94810106EE11E0C8016CE21F
:1001F00071E00E94130681E00E941502BC01C80153
:100200004AE050E00E94F4058EE060E00E94760231
:1002100080E161E00E94370280E160E00E947602A6
:100220001F910F91089586EE91E00E94DB03892BC8
:10023000B1F086EE91E00E940C048093540181336A
:1002400019F40E94D8000895823319F40E948C009A
:10025000089561E070E080E090E00E9481010895DF
:1002600086EE91E040E052EC61E070E00E945403C1
:1002700008951F920F920FB60F9211242F933F9360
:100280008F939F93AF93BF938091590190915A019F
:10029000A0915B01B0915C0130915D010196A11DBF
:1002A000B11D232F2D5F2D3720F02D570196A11D55
:1002B000B11D20935D018093590190935A01A09341
:1002C0005B01B0935C018091550190915601A09122
:1002D0005701B09158010196A11DB11D80935501A0
:1002E00090935601A0935701B0935801BF91AF91DD
:1002F0009F918F913F912F910F900FBE0F901F9064
:1003000018959B01AC017FB7F894809155019091AD
:100310005601A0915701B091580166B5A89B05C040
:100320006F3F19F00196A11DB11D7FBFBA2FA92FF4
:10033000982F8827860F911DA11DB11D62E0880F9F
:10034000991FAA1FBB1F6A95D1F7BC012DC0FFB72B
:10035000F8948091550190915601A0915701B09168
:100360005801E6B5A89B05C0EF3F19F00196A11D05
:10037000B11DFFBFBA2FA92F982F88278E0F911D6F
:10038000A11DB11DE2E0880F991FAA1FBB1FEA95AE
:10039000D1F7861B970B885E9340C8F221503040FE
:1003A0004040504068517C4F2115310541055105B1
:1003B00071F60895789484B5826084BD84B58160B7
:1003C00084BD85B5826085BD85B5816085BDEEE65D
:1003D000F0E0808181608083E1E8F0E0108280813C
:1003E00082608083808181608083E0E8F0E08081AA
:1003F00081608083E1EBF0E0808184608083E0EBCA
:10040000F0E0808181608083EAE7F0E080818460B1
:10041000808380818260808380818160808380810D
:10042000806880831092C1000895982F8E3008F064
:100430009E509770809142018295880F880F807C32
:10044000892B80937C0080917A00806480937A006D
:1004500080917A0086FDFCCF209178004091790050
:10046000942F80E030E0282B392BC9010895CF93D9
:10047000DF93482F50E0CA0186569F4FFC0134910C
:100480004A575F4FFA018491882369F190E0880F01
:10049000991FFC01E859FF4FA591B491FC01EE585A
:1004A000FF4FC591D491662351F42FB7F8948C91E6
:1004B000932F909589238C93888189230BC0623078
:1004C00061F42FB7F8948C91932F909589238C9396
:1004D0008881832B88832FBF06C09FB7F8948C91A7
:1004E000832B8C939FBFDF91CF910895482F50E0CD
:1004F000CA0182559F4FFC012491CA0186569F4F25
:10050000FC0194914A575F4FFA013491332309F467
:1005100040C0222351F1233071F0243028F42130DF
:10052000A1F0223011F514C02630B1F02730C1F00F
:100530002430D9F404C0809180008F7703C080916B
:1005400080008F7D8093800010C084B58F7702C0BB
:1005500084B58F7D84BD09C08091B0008F7703C0C2
:100560008091B0008F7D8093B000E32FF0E0EE0F1C
:10057000FF1FEE58FF4FA591B4912FB7F894662353
:1005800021F48C919095892302C08C91892B8C93B6
:100590002FBF089508951F920F920FB60F92112446
:1005A0002F933F934F938F939F93EF93FF9380915C
:1005B000C00082FD1DC04091C60020919E01309177
:1005C0009F012F5F3F4F2F7330708091A00190915A
:1005D000A1012817390771F0E0919E01F0919F0168
:1005E000E25AFE4F408330939F0120939E0102C048
:1005F0008091C600FF91EF919F918F914F913F9114
:100600002F910F900FBE0F901F901895E091F2015F
:10061000F091F301E05CFF4F819191912081318154
:10062000821B930B8F739070892B11F00E94CA026A
:1006300008951F920F920FB60F9211242F933F939C
:100640008F939F93EF93FF932091E2013091E30109
:100650008091E4019091E5012817390731F48091E8
:10066000C1008F7D8093C10014C0E091E401F0913E
:10067000E501EE55FE4F20818091E4019091E50166
:1006800001968F7390709093E5018093E40120931D
:10069000C600FF91EF919F918F913F912F910F9005
:1006A0000FBE0F901F901895AF92BF92DF92EF92FE
:1006B000FF920F931F93CF93DF93EC017A018B018D
:1006C000DD24403081EE580780E0680780E078073D
:1006D00011F0DD24D39491E0A92EB12CEC89FD8991
:1006E000DD2069F0C50108A002C0880F991F0A9497
:1006F000E2F7808360E079E08DE390E005C010824E
:1007000060E874E88EE190E0A80197010E94480635
:100710002150304040405040569547953795279599
:1007200080E12030380720F0DD2011F0DD24D6CF25
:10073000E889F9893083EA89FB89208319A2EE8947
:10074000FF89408121E030E0C9010C8C02C0880F94
:10075000991F0A94E2F7482B4083EE89FF89408174
:10076000C9010D8C02C0880F991F0A94E2F7482B2B
:100770004083EE89FF894081C9010E8C02C0880F39
:10078000991F0A94E2F7482B4083EE89FF89808104
:100790000F8C02C0220F331F0A94E2F72095282302
:1007A0002083DF91CF911F910F91FF90EF90DF9009
:1007B000BF90AF900895DC011C96ED91FC911D97C0
:1007C000E05CFF4F2191319180819181281B390B91
:1007D0002F733070C9010895DC011C96ED91FC91D6
:1007E0001D97E05CFF4F20813181E054F040DF0134
:1007F000AE5BBF4F8D919C9111972817390719F463
:100800002FEF3FEF07C08D919C91E80FF91F80817A
:10081000282F30E0C9010895DC011C96ED91FC9170
:100820001D97E05CFF4F20813181E054F040DF01F3
:10083000AE5BBF4F8D919C9111972817390719F422
:100840002FEF3FEF10C08D919C911197E80FF91F8A
:1008500020818D919C91119701968F7390701196C4
:100860009C938E9330E0C9010895DC0191968C91A0
:100870009197882339F05496ED91FC91559780819A
:1008800086FFF9CF91961C920895CF93DF93EC01E8
:10089000EE85FF85E05CFF4F20813181E054F04020
:1008A0002F5F3F4F2F733070DF01AE5BBF4F8D91D5
:1008B0009C91119728173907D1F3E05CFF4F808195
:1008C0009181E054F040E80FF91F6083EE85FF85C9
:1008D000E05CFF4F31832083EE89FF89208181E036
:1008E00090E00F8C02C0880F991F0A94E2F7282B22
:1008F000208381E089A3EC89FD89808180648083E5
:1009000081E090E0DF91CF9108951092E90110927B
:10091000E80188EE93E0A0E0B0E08093EA019093D4
:10092000EB01A093EC01B093ED0187E491E090938B
:10093000E7018093E6018EE591E09093F3018093C7
:10094000F20182EA91E09093F5018093F40185EC45
:1009500090E09093F7018093F60184EC90E09093FF
:10096000F9018093F80180EC90E09093FB01809373
:10097000FA0181EC90E09093FD018093FC0182EC00
:1009800090E09093FF018093FE0186EC90E09093BD
:1009900001028093000284E08093020283E080934E
:1009A000030287E08093040285E08093050281E0E2
:1009B000809306020895CF93DF930E94DA010E948C
:1009C0003001C6E0D3E00E9413012097E1F30E94BA
:1009D0000603F9CFCF92DF92EF92FF920F931F930E
:1009E000CF93DF937C016B018A01C0E0D0E00FC0A0
:1009F000D6016D916D01D701ED91FC910190F081CF
:100A0000E02DC7010995C80FD91F015010400115ED
:100A1000110571F7CE01DF91CF911F910F91FF90DA
:100A2000EF90DF90CF900895EF92FF920F931F9376
:100A30008C01DC01ED91FC910190F081E02D6DE0E5
:100A400009957C01D801ED91FC910190F081E02D98
:100A5000C8016AE009959C012E0D3F1DC9011F9137
:100A60000F91FF90EF900895CF93DF93EC01611504
:100A7000710519F420E030E00FC0DB010D9000207B
:100A8000E9F71197A61BB70BE881F9810280F38182
:100A9000E02DAD0109959C01C901DF91CF91089529
:100AA0004F925F927F928F929F92AF92BF92CF921E
:100AB000DF92EF92FF920F931F93DF93CF93CDB707
:100AC000DEB7A1970FB6F894DEBF0FBECDBF2C01E5
:100AD000742ECB01223008F42AE019A231E2C32E91
:100AE000D12CCC0EDD1E822E9924AA24BB24672D86
:100AF000752FA50194010E94480679018A01C80159
:100B0000B701A50194010E942906472D461B0894B0
:100B1000C108D1084A3014F4405D01C0495CF601B7
:100B20004083E114F1040105110521F07E2C5F2DB5
:100B3000C801DDCFC201B6010E943405A1960FB6EF
:100B4000F894DEBF0FBECDBFCF91DF911F910F9103
:100B5000FF90EF90DF90CF90BF90AF909F908F90DD
:100B60007F905F904F900895CF92DF92EF92FF9227
:100B70000F931F93CF93DF93EC016A017B01211543
:100B8000310541F4E881F9810190F081E02D642F75
:100B900009951FC02A303105D1F477FF17C0E881CD
:100BA000F9810190F081E02D6DE209958C014427D7
:100BB0005527BA014C195D096E097F09CE012AE05B
:100BC0000E9450059801280F391F04C02AE00E9496
:100BD00050059C01C901DF91CF911F910F91FF90AA
:100BE000EF90DF90CF900895CF92DF92EF92FF9237
:100BF0000F931F936C017B019A010027F7FC00956E
:100C0000102FB801A7010E94B4058C01C6010E94F3
:100C10001405080F191FC8011F910F91FF90EF9045
:100C2000DF90CF9008950E9434050895EF92FF92CF
:100C30000F931F937C010E9434058C01C7010E9411
:100C40001405080F191FC8011F910F91FF90EF9015
:100C50000895629FD001739FF001829FE00DF11D06
:100C6000649FE00DF11D929FF00D839FF00D749F26
:100C7000F00D659FF00D9927729FB00DE11DF91FD2
:100C8000639FB00DE11DF91FBD01CF01112408952F
:100C9000A1E21A2EAA1BBB1BFD010DC0AA1FBB1F80
:100CA000EE1FFF1FA217B307E407F50720F0A21BF2
:100CB000B30BE40BF50B661F771F881F991F1A945F
:100CC00069F760957095809590959B01AC01BD0189
:100CD000CF010895EE0FFF1F0590F491E02D0994C8
:040CE000F894FFCFB6
:100CE40074657374696E6720707265206D656173D5
:100CF4007572656D656E7400526576657273655FB5
:100D04004D6561737572656D656E7400466F7277BB
:100D1400617264204D6561737572656D656E742CC6
:100D2400200001000000004504EA04DB030C04EC8D
:040D3400033504007F
:00000001FF
